{
  "_format": "hh-sol-artifact-1",
  "contractName": "BarterAggregatorV1",
  "sourceName": "contracts/BarterAggregatorV1.sol",
  "abi": [
    {
      "inputs": [],
      "stateMutability": "nonpayable",
      "type": "constructor"
    },
    {
      "anonymous": false,
      "inputs": [],
      "name": "Disabled",
      "type": "event"
    },
    {
      "anonymous": false,
      "inputs": [
        {
          "indexed": true,
          "internalType": "address",
          "name": "previousOwner",
          "type": "address"
        },
        {
          "indexed": true,
          "internalType": "address",
          "name": "newOwner",
          "type": "address"
        }
      ],
      "name": "OwnershipTransferred",
      "type": "event"
    },
    {
      "anonymous": false,
      "inputs": [
        {
          "indexed": true,
          "internalType": "address",
          "name": "user",
          "type": "address"
        },
        {
          "indexed": false,
          "internalType": "uint256",
          "name": "amountOut",
          "type": "uint256"
        },
        {
          "indexed": false,
          "internalType": "uint256",
          "name": "timestamp",
          "type": "uint256"
        }
      ],
      "name": "SwapSuccessful",
      "type": "event"
    },
    {
      "inputs": [],
      "name": "disable",
      "outputs": [],
      "stateMutability": "nonpayable",
      "type": "function"
    },
    {
      "inputs": [],
      "name": "isDisabled",
      "outputs": [
        {
          "internalType": "bool",
          "name": "",
          "type": "bool"
        }
      ],
      "stateMutability": "view",
      "type": "function"
    },
    {
      "inputs": [],
      "name": "owner",
      "outputs": [
        {
          "internalType": "address",
          "name": "",
          "type": "address"
        }
      ],
      "stateMutability": "view",
      "type": "function"
    },
    {
      "inputs": [
        {
          "internalType": "address",
          "name": "token",
          "type": "address"
        },
        {
          "internalType": "address",
          "name": "to",
          "type": "address"
        },
        {
          "internalType": "uint256",
          "name": "amount",
          "type": "uint256"
        }
      ],
      "name": "rescueERC20",
      "outputs": [],
      "stateMutability": "nonpayable",
      "type": "function"
    },
    {
      "inputs": [
        {
          "internalType": "address payable",
          "name": "to",
          "type": "address"
        },
        {
          "internalType": "uint256",
          "name": "amount",
          "type": "uint256"
        }
      ],
      "name": "rescueETH",
      "outputs": [],
      "stateMutability": "nonpayable",
      "type": "function"
    },
    {
      "inputs": [
        {
          "internalType": "address",
          "name": "router",
          "type": "address"
        },
        {
          "internalType": "bytes",
          "name": "callData",
          "type": "bytes"
        }
      ],
      "name": "swap",
      "outputs": [
        {
          "internalType": "uint256",
          "name": "amountOut",
          "type": "uint256"
        }
      ],
      "stateMutability": "payable",
      "type": "function"
    },
    {
      "inputs": [
        {
          "internalType": "address",
          "name": "newOwner",
          "type": "address"
        }
      ],
      "name": "transferOwnership",
      "outputs": [],
      "stateMutability": "nonpayable",
      "type": "function"
    },
    {
      "inputs": [
        {
          "internalType": "address",
          "name": "router",
          "type": "address"
        },
        {
          "internalType": "bool",
          "name": "isWhitelisted",
          "type": "bool"
        },
        {
          "internalType": "uint8",
          "name": "routerType",
          "type": "uint8"
        }
      ],
      "name": "updateWhitelistedRouter",
      "outputs": [],
      "stateMutability": "nonpayable",
      "type": "function"
    },
    {
      "inputs": [
        {
          "internalType": "address",
          "name": "",
          "type": "address"
        }
      ],
      "name": "whitelistedRouters",
      "outputs": [
        {
          "internalType": "bool",
          "name": "isWhitelisted",
          "type": "bool"
        },
        {
          "internalType": "uint8",
          "name": "routerType",
          "type": "uint8"
        }
      ],
      "stateMutability": "view",
      "type": "function"
    },
    {
      "stateMutability": "payable",
      "type": "receive"
    }
  ],
  "bytecode": "0x608060405234801561001057600080fd5b5061001a3361001f565b61006f565b600080546001600160a01b038381166001600160a01b0319831681178455604051919092169283917f8be0079c531659141344cd1fd0a4f28419497f9722a3daafe3b4186f6b6457e09190a35050565b610d578061007e6000396000f3fe60806040526004361061008a5760003560e01c80636c57f5a9116100595780636c57f5a9146101445780638da5cb5b1461016e578063b2118a8d14610196578063e3547335146101b6578063f2fde38b146101d757600080fd5b8063099a04e5146100965780630f874a13146100b8578063108e2b661461010f5780632f2770db1461012f57600080fd5b3661009157005b600080fd5b3480156100a257600080fd5b506100b66100b13660046109f5565b6101f7565b005b3480156100c457600080fd5b506100f16100d3366004610a21565b60016020526000908152604090205460ff8082169161010090041682565b60408051921515835260ff9091166020830152015b60405180910390f35b34801561011b57600080fd5b506100b661012a366004610a53565b610218565b34801561013b57600080fd5b506100b661027c565b34801561015057600080fd5b50600054600160a01b900460ff166040519015158152602001610106565b34801561017a57600080fd5b506000546040516001600160a01b039091168152602001610106565b3480156101a257600080fd5b506100b66101b1366004610aa4565b6102c0565b6101c96101c4366004610ae5565b610408565b604051908152602001610106565b3480156101e357600080fd5b506100b66101f2366004610a21565b6106c3565b6101ff61073c565b8060000361020a5750475b61021482826107a7565b5050565b61022061073c565b604080518082018252921515835260ff91821660208085019182526001600160a01b039590951660009081526001909552932091518254935161ffff1990941690151561ff001916176101009390911692909202919091179055565b61028461073c565b6000805460ff60a01b1916600160a01b1781556040517f75884cdadc4a89e8b545db800057f06ec7f5338a08183c7ba515f2bfdd9fe1e19190a1565b6102c861073c565b6001600160a01b038216158015906102f25750826001600160a01b0316826001600160a01b031614155b6103305760405162461bcd60e51b815260206004820152600a602482015269496e76616c696420746f60b01b60448201526064015b60405180910390fd5b6040516370a0823160e01b81523060048201526000906001600160a01b038516906370a0823190602401602060405180830381865afa158015610377573d6000803e3d6000fd5b505050506040513d601f19601f8201168201806040525081019061039b9190610b6a565b9050816000036103b5576103b0848483610875565b610402565b808211156103f75760405162461bcd60e51b815260206004820152600f60248201526e457863656564732062616c616e636560881b6044820152606401610327565b610402848484610875565b50505050565b60008054600160a01b900460ff161561045a5760405162461bcd60e51b815260206004820152601460248201527310dbdb9d1c9858dd081a5cc8191a5cd8589b195960621b6044820152606401610327565b6104664261012c610b99565b804211156104a05760405162461bcd60e51b8152602060048201526007602482015266115e1c1a5c995960ca1b6044820152606401610327565b6001600160a01b03851660009081526001602052604090205460ff166105015760405162461bcd60e51b8152602060048201526016602482015275149bdd5d195c881b9bdd081dda1a5d195b1a5cdd195960521b6044820152606401610327565b600080866001600160a01b0316868660405161051e929190610bb2565b600060405180830381855af49150503d8060008114610559576040519150601f19603f3d011682016040523d82523d6000602084013e61055e565b606091505b5091509150816105b05760405162461bcd60e51b815260206004820152601b60248201527f44656c656761746563616c6c20746f2073776170206661696c656400000000006044820152606401610327565b6001600160a01b0387166000908152600160208190526040822054610100900460ff16908111156105e3576105e3610bc2565b905060008160018111156105f9576105f9610bc2565b03610645576000828060200190518101906106149190610bee565b905080600182516106259190610cac565b8151811061063557610635610cbf565b602002602001015195505061067e565b600181600181111561065957610659610bc2565b0361067957818060200190518101906106729190610b6a565b945061067e565b600094505b6040805186815242602082015233917fd0dcb5d6ccbc65558941eda1d0add99921923cc1868a41bbf8d224258a21396d910160405180910390a2505050509392505050565b6106cb61073c565b6001600160a01b0381166107305760405162461bcd60e51b815260206004820152602660248201527f4f776e61626c653a206e6577206f776e657220697320746865207a65726f206160448201526564647265737360d01b6064820152608401610327565b61073981610990565b50565b3361074f6000546001600160a01b031690565b6001600160a01b0316146107a55760405162461bcd60e51b815260206004820181905260248201527f4f776e61626c653a2063616c6c6572206973206e6f7420746865206f776e65726044820152606401610327565b565b604080516000808252602082019092526001600160a01b0384169083906040516107d19190610cd5565b60006040518083038185875af1925050503d806000811461080e576040519150601f19603f3d011682016040523d82523d6000602084013e610813565b606091505b50509050806108705760405162461bcd60e51b815260206004820152602360248201527f5472616e7366657248656c7065723a204554485f5452414e534645525f46414960448201526213115160ea1b6064820152608401610327565b505050565b604080516001600160a01b038481166024830152604480830185905283518084039091018152606490920183526020820180516001600160e01b031663a9059cbb60e01b17905291516000928392908716916108d19190610cd5565b6000604051808303816000865af19150503d806000811461090e576040519150601f19603f3d011682016040523d82523d6000602084013e610913565b606091505b509150915081801561093d57508051158061093d57508080602001905181019061093d9190610d04565b6109895760405162461bcd60e51b815260206004820152601f60248201527f5472616e7366657248656c7065723a205452414e534645525f4641494c4544006044820152606401610327565b5050505050565b600080546001600160a01b038381166001600160a01b0319831681178455604051919092169283917f8be0079c531659141344cd1fd0a4f28419497f9722a3daafe3b4186f6b6457e09190a35050565b6001600160a01b038116811461073957600080fd5b60008060408385031215610a0857600080fd5b8235610a13816109e0565b946020939093013593505050565b600060208284031215610a3357600080fd5b8135610a3e816109e0565b9392505050565b801515811461073957600080fd5b600080600060608486031215610a6857600080fd5b8335610a73816109e0565b92506020840135610a8381610a45565b9150604084013560ff81168114610a9957600080fd5b809150509250925092565b600080600060608486031215610ab957600080fd5b8335610ac4816109e0565b92506020840135610ad4816109e0565b929592945050506040919091013590565b600080600060408486031215610afa57600080fd5b8335610b05816109e0565b9250602084013567ffffffffffffffff80821115610b2257600080fd5b818601915086601f830112610b3657600080fd5b813581811115610b4557600080fd5b876020828501011115610b5757600080fd5b6020830194508093505050509250925092565b600060208284031215610b7c57600080fd5b5051919050565b634e487b7160e01b600052601160045260246000fd5b80820180821115610bac57610bac610b83565b92915050565b8183823760009101908152919050565b634e487b7160e01b600052602160045260246000fd5b634e487b7160e01b600052604160045260246000fd5b60006020808385031215610c0157600080fd5b825167ffffffffffffffff80821115610c1957600080fd5b818501915085601f830112610c2d57600080fd5b815181811115610c3f57610c3f610bd8565b8060051b604051601f19603f83011681018181108582111715610c6457610c64610bd8565b604052918252848201925083810185019188831115610c8257600080fd5b938501935b82851015610ca057845184529385019392850192610c87565b98975050505050505050565b81810381811115610bac57610bac610b83565b634e487b7160e01b600052603260045260246000fd5b6000825160005b81811015610cf65760208186018101518583015201610cdc565b506000920191825250919050565b600060208284031215610d1657600080fd5b8151610a3e81610a4556fea26469706673582212201027670c59015d5078c3db2603a7dbdf322d0a7d6e509da82ae382f6625fecd664736f6c63430008180033",
  "linkReferences": {},
  "deployedLinkReferences": {}
}